:100000000C94DC050C94F9050C94F9050C94F90595
:100010000C94F9050C94F9050C94F9050C94F90568
:100020000C94F9050C94F9050C94F9050C94FB0556
:100030000C94F9050C94F9050C94F9050C94F90548
:100040000C94F9050C94F9050C94F9050C94F90538
:100050000C94F9050C94F9050C94F9050C94F90528
:100060000C94F9050C94F905000000000000005FF5
:1000700000000007000700147F147F14242A7F2A41
:10008000122313086462364955225000050300000C
:10009000001C2241000041221C00082A1C2A0808DA
:1000A000083E0808005030000008080808080060F2
:1000B00060000020100804023E5149453E00427F86
:1000C000400042615149462141454B311814127F8D
:1000D0001027454545393C4A494930017109050316
:1000E0003649494936064949291E0036360000007E
:1000F000563600000008142241141414141441222E
:100100001408000201510906324979413E7E11115D
:10011000117E7F494949363E414141227F4141227A
:100120001C7F494949417F090901013E4141513242
:100130007F0808087F00417F41002040413F017F48
:10014000081422417F404040407F0204027F7F0428
:1001500008107F3E4141413E7F090909063E415159
:10016000215E7F09192946464949493101017F012C
:10017000013F4040403F1F2040201F7F2018207F2C
:100180006314081463030478040361514945430070
:10019000007F4141020408102041417F0000040219
:1001A0000102044040404040000102040020545439
:1001B00054787F48444438384444442038444448C0
:1001C0007F3854545418087E090102081454543CD2
:1001D0007F0804047800447D40002040443D000036
:1001E0007F10284400417F40007C041804787C087C
:1001F00004047838444444387C1414140808141453
:10020000187C7C080404084854545420043F44409B
:10021000203C4040207C1C2040201C3C4030403C86
:1002200044281028440C5050503C4464544C440022
:100230000836410000007F00000041360800080831
:100240002A1C08081C2A0808000000000000000002
:10025000000000000000000000000000000000009E
:10026000000000000000000000000000000000008E
:1002700000000000000000000000008080C0C0C03E
:10028000E0E0E0E0E0E0E0E0E0E0E0E0E0E0C0C0AE
:10029000C08080000000000000000000000000009E
:1002A000000000000000000000000000000000004E
:1002B000000000000000000000000000000000003E
:1002C000000000000000000000000000000000002E
:1002D000000000000000000000000000000000001E
:1002E000000000000000000000000000000000000E
:1002F0000080C0E0F0F8FCFCFEFFFFFFFFFFFFFF07
:10030000FFFFFFFFFFFFFFFFFFFFFFFFFFFFFFFFFD
:10031000FFFFFFFFFFFEFCFCF8F0E0C080000000E4
:1003200000000000000000000000000000000000CD
:1003300000000000000000000000000000000000BD
:1003400000000000000000000000000000000000AD
:10035000000000000000000000000000000000009D
:100360000000000000000000000000000080F0FC21
:10037000FEFFFFFFFFFFFFFFFFFFFFFFFFFFFFFF8E
:10038000FFFFFFFFFFFFFFFFFFFFFFFFFFFFFFFF7D
:10039000FFFFFFFFFFFFFFFFFFFFFFFFFFFEFCF080
:1003A000C00000000000000000000000000000008D
:1003B000000000000000000000000000000000003D
:1003C000000000000000000000000000000000002D
:1003D000000000000000000000000000000000001D
:1003E000000000000000000000000000FCFFFFFF14
:1003F000FFFFFFFFFFFFFFFFFFFFFFFFFFFFFF1FED
:1004000007030101000000000000000103071FFFB7
:10041000FFFFFFFFFFFFFFFFFFFFFFFFFFFFFFFFEC
:10042000FFFC0000000000000000000000000000D1
:1004300000000000000000000000000000000000BC
:1004400000000000000000000000000000000000AC
:10045000000000000000000000000000000000009C
:100460000000000000000000000000001FFFFFFF70
:10047000FFFFFFFFFFFFFFFFFFFFFFFFFFFFFFFC8F
:10048000F0E0C08080000000000080C0C0F0FCFFF1
:10049000FFFFFFFFFFFFFFFFFFFFFFFFFFFFFFFF6C
:1004A000FF3F00000000000000000000000000000E
:1004B000000000000000000000000000000000003C
:1004C000000000000000000000000000000000002C
:1004D000000000000000000000000000000000001C
:1004E0000000000000000000000000000001071FE5
:1004F0007FFFFFFFFFFFFFFFFFFFFFFFFFFFFFFF8C
:10050000FFFF7F0F0300000000010F3FFFFFFFFF11
:10051000FFFFFFFFFFFFFFFFFFFFFFFFFF7F1F0743
:1005200001000000000000000000000000000000CA
:1005300000000000000000000000000000000000BB
:1005400000000000000000000000000000000000AB
:10055000000000000000000000000000000000009B
:10056000000000000000000000000000000000008B
:1005700000000103070F1F3F3F7FFFFFFFFFFF7FCB
:100580000F0300000000000000000000010F3FFF0B
:10059000FFFFFFFF7F7F3F1F0F07030100000000E9
:1005A000000000000000000000000000000000004B
:1005B000000000000000000000000000000000003B
:1005C000000000000000000000000000000000002B
:1005D000000000000000000000000000000000001B
:1005E000000000000000000000000000000000000B
:1005F00000000000000000000000000000010100F9
:1006000000000000000000000000000000000001E9
:1006100001010000000000000000000000000000D8
:1006200000000000000000000000000000000000CA
:1006300000000000000000000000000000000000BA
:10064000000000000000000000E0F0380C0C0C0C72
:1006500038F8C000001F7FE080808080E0FF1F002E
:100660000000000101010101000000000010181845
:10067000FCFC00000000000000000000FFFF000084
:100680000000000000000000010100000000000068
:1006900000081C0C0C0C0C8CF8F0000000F0F89C0E
:1006A0008C86868383800000000101010101010125
:1006B0000101000000081C0C0C0C0C8CF8F0000070
:1006C0000080C080818383C7FF7C0000000001019F
:1006D000010101010000000000000080C07038FC32
:1006E000FC000000001C1E1B111810FFFF1018005A
:1006F0000000000000000001010000000000F4FC08
:100700001C0C0C0C0C0000000080C383838383C787
:10071000FE7800000000000101010101000000005E
:1007200000C0F0781C0C0C0C08000000003FFFC358
:10073000838383C3FE7C00000000000101010101EE
:1007400000000000000C0C0C0C8CCC7C3C0C00005D
:10075000000080F07C0F0300000000000000010199
:10076000000000000000000000F0F81C0C0C0C0C55
:10077000F8F0000000F8FF8F0706068FFFF8000072
:1007800000000103030303010100000000F0F81C56
:100790000C0C0C1CF8E000000001878E8C8C8CEE99
:1007A0007F1F0000000001010101010000000000A6
:1007B000000000000000005F0000000700070014B8
:1007C0007F147F14242A7F2A122313086462364977
:1007D0005522500005030000001C22410000412268
:1007E0001C00082A1C2A0808083E0808005030008F
:1007F00000080808080800606000002010080402D3
:100800003E5149453E00427F4000426151494621E8
:1008100041454B311814127F1027454545393C4A54
:1008200049493001710905033649494936064949A4
:10083000291E00363600000056360000000814223B
:100840004114141414144122140800020151090621
:10085000324979413E7E1111117E7F494949363E28
:10086000414141227F4141221C7F494949417F0941
:100870000901013E414151327F0808087F00417F54
:1008800041002040413F017F081422417F40404009
:10089000407F0204027F7F0408107F3E4141413EB9
:1008A0007F090909063E4151215E7F091929464603
:1008B0004949493101017F01013F4040403F1F202C
:1008C00040201F7F2018207F6314081463030478DE
:1008D0000403615149454300007F4141020408106F
:1008E0002041417F0000040201020440404040409A
:1008F000000102040020545454787F48444438389E
:1009000044444420384444487F3854545418087EA2
:10091000090102081454543C7F0804047800447D03
:1009200040002040443D00007F10284400417F40AB
:10093000007C041804787C08040478384444443863
:100940007C14141408081414187C7C080404084847
:1009500054545420043F4440203C4040207C1C2000
:1009600040201C3C4030403C44281028440C50504F
:10097000503C4464544C44000836410000007F0061
:1009800000004136080008082A1C08081C2A08082C
:100990000600000000000000000F00000F00000F24
:1009A00000000F0000000000000000000000000038
:1009B0000000000000000000000000000000070030
:1009C000001E00E01F00FF1FF8FF03FF1F00FF01D4
:1009D000000F000000000000000000000000000008
:1009E0000000000000000000000000000E000000F9
:1009F000C07F00F8FF01FCFF07FCFF073E800F0EE1
:100A0000000E0E000E0E000E1E800FFCFF07FCFFF6
:100A100007F8FF01C07F000000000E00000070001A
:100A20000E38000E38000E1C000E0E000EFEFF0FDA
:100A3000FEFF0FFEFF0FFEFF0F00000E00000E0076
:100A4000000E00000E0000000E00000060000F7895
:100A5000800F7CC00F7CE00F1EF00F0EF80E0E7C96
:100A60000E0E3E0E1E1F0EFE0F0EFC070EF8030E9E
:100A7000F0010E0000000E000000308001388003FD
:100A80003C80073C800F1E000F0E0E0E0E0E0E0E49
:100A90000E0E1E1F0FFEFF0FFCFB07FCF903F0E01C
:100AA000010000000F00000000F00000F80000FE50
:100AB0000080EF00C0E700F0E1007CE0003EE000D5
:100AC000FEFF0FFEFF0FFEFF0FFEFF0F00E0000016
:100AD000E0000E000000008001F88703FE8707FE9B
:100AE000870FFE070F0E030E8E030E8E030E8E076A
:100AF0000F8EFF070EFF070EFE0300FC0000000034
:100B00000E000000C07F00F0FF01F8FF07FCFF07A8
:100B10003E0E0F0E070E0E070E0E070E1E0F0F3E97
:100B2000FF0F3CFE0738FE0330F8010000000E0006
:100B300000000E00000E00000E00000E000F0EE080
:100B40000F0EF80F0EFE0F8EFF00CE0F00FE0300FB
:100B5000FE00003E00001E00000000000E0000002D
:100B6000F0E001F8FB03FCFB07FEFF0F1E1F0F0E5A
:100B70000E0E0E0E0E0E0E0E1E1F0FFEFF0FFCFBB6
:100B800007FCFB03F0E0010000000E000000F08312
:100B900001F88703FC8F07FE9F0F1E1E0F0E1C0E11
:100BA0000E1C0E0E1C0E1E8E0FFCFF07FCFF03F822
:100BB000FF01C07F0000000011241FBECFEFD8E06E
:100BC000DEBFCDBF11E0A0E0B1E0E0E4F8E302C099
:100BD00005900D92AC36B107D9F713E0ACE6B1E061
:100BE00001C01D92A939B107E1F70E94C2070C9418
:100BF0001E1C0C9400001F920F920FB60F9211242E
:100C00008F939F93909175019F5F90937501809151
:100C10007601882319F08150809376019A3039F457
:100C200010927501809178018F5F80937801809197
:100C300078018A3039F410927801809179018F5FC0
:100C400080937901909179019A3069F41092790139
:100C5000809177018F5F80937701809174018B3051
:100C600011F4909374019F918F910F900FBE0F908C
:100C70001F90189580916E0165E00E944D18282FF5
:100C80008F5F80938E01853020F4809372018FE016
:100C900006C090E02450821B9109880F991F809311
:100CA000910108954F925F926F927F928F929F92DF
:100CB000AF92BF92CF92DF92EF92FF920F931F936A
:100CC000CF93DF9380917201682E77248091030186
:100CD000882E992480916F01A82EBB248091040155
:100CE000C82EDD2480917001E82EFF2400916D0153
:100CF000A02FB0E01F9680910501C82FD0E0109181
:100D00006E01EAE7F1E060E070E045C08081482FC5
:100D100050E08481282F30E0C401821B930B4817D8
:100D2000590729F02A0D3B1D4217530719F48281F8
:100D3000819582838181482F50E08481282F30E083
:100D4000C601821B930B4817590729F02E0D3F1D32
:100D50004217530719F4838181958383908182819F
:100D6000980F908343812181240F2183901780F075
:100D7000892F90E0A817B9075CF030E084812E013C
:100D8000481A51082415350519F4419543831F5F0E
:100D90006F5F7F4F3596661577050CF4B7CF1093CC
:100DA0006E017093900160938F01DF91CF911F913D
:100DB0000F91FF90EF90DF90CF90BF90AF909F90FA
:100DC0008F907F906F905F904F90089520916D016C
:100DD00030E040E25EE44D9903C0253408F42F5F13
:100DE0004E9902C021112150CA010197F1F73F5FCE
:100DF000373089F720936D010895EF92FF920F939A
:100E00001F93DF93CF9300D00F92CDB7DEB70E9430
:100E1000ED0880916D016DE24091910123E001E0C8
:100E20000E94031100D000D000D0EDB7FEB731967C
:100E30008E010F5F1F4FADB7BEB712961C930E9376
:100E4000119750E0E52E51E0F52EF382E282809179
:100E50006E01848315820E94EA188DB79EB70696AC
:100E60000FB6F8949EBF0FBE8DBF84E160E0A8016D
:100E70000E949E0D00D000D000D0EDB7FEB7319695
:100E8000ADB7BEB712961C930E931197F382E28210
:100E900080918E01848315820E94EA188DB79EB7D7
:100EA00006960FB6F8949EBF0FBE8DBF80E060E03F
:100EB000A8010E949E0D00D000D000D0EDB7FEB773
:100EC0003196ADB7BEB712961C930E931197F3826D
:100ED000E28280919101848315820E94EA188DB785
:100EE0009EB706960FB6F8949EBF0FBE8DBF8CE3DB
:100EF00060E0A8010E949E0D1092900110928F0157
:100F00002BC0F901EE0FFF1FEE0FFF1FE20FF31FC3
:100F1000E658FE4F80816181448121E00E94CE0F1E
:100F200080918F0190919001FC01EE0FFF1FEE0F59
:100F3000FF1FE80FF91FE658FE4F80816181448151
:100F400021E00E94800E80918F0190919001019686
:100F50009093900180938F0120918F0130919001A7
:100F60008091720190E0281739075CF20E945509C0
:100F70000F900F900F90CF91DF911F910F91FF90E5
:100F8000EF900895FF920F931F93CF93DF93229AD0
:100F90002A983898409A399A419A8AB18B798AB9B5
:100FA0008BB184668BB9549885B5876085BD88E020
:100FB0009DE39093890080938800809181008860F0
:100FC0008093810080916F00826080936F00809198
:100FD000810085608093810078940E942509109299
:100FE000900110928F01FF24FA945EC00E94D118E4
:100FF000FE01EE0FFF1FEE0FFF1FEC0FFD1FE65867
:10100000FE4F6CEC7CE00E94591864830E94D1185A
:101010008C0180918F0190919001FC01EE0FFF1FD8
:10102000EE0FFF1FE80FF91FE658FE4F2481822FB5
:1010300090E0880F991F6091030170E0681B790BA5
:101040008FEF9FE70E945918C8010E945918260F78
:1010500020830E94D1188C0120918F013091900142
:10106000F901EE0FFF1FEE0FFF1FE20FF31FE6580F
:10107000FE4F4481842F90E0880F991F60910401F6
:1010800070E0681B790B8FEF9FE70E945918C80129
:101090000E945918460F4183F282F3822F5F3F4F1F
:1010A0003093900120938F01C0918F01D0919001D6
:1010B000C430D1050CF49ACF88E690E065E047E0B3
:1010C00020E20FE70E946F150FEF05B90E943A0664
:1010D0000E9452060E94E6060E94FD06F6CF982F57
:1010E000843508F093E5443508F043E5603308F0B3
:1010F0006FE2203308F02FE2E0919003F09191032A
:101100008081981708F490838281841708F44283C1
:101110008181681708F461838381821708F423832F
:101120000895E0919003F091910383E5808312820A
:101130008FE2818313820895E0919003F0919103EF
:1011400083E5808312828FE2818313820895E09188
:101150009003F0919103108283E5828311828FE2E4
:101160008383089590938F0380938E0370939103EC
:10117000609390030895089540E050E020E030E04F
:1011800064E580918E0390918F034530510581F085
:10119000DC01A20FB31F2C5A3F4FFC01E20FF31FDB
:1011A0002455304084E501900D928150E1F707C04D
:1011B0008C559E4FDC01862F1D928A95E9F74F5F73
:1011C0005F4F2C5A3F4F46305105D9F680E060E022
:1011D00043E52FE20E946F080895E0918E03F0919D
:1011E0008F0388EF91E0DF019C011D922150304078
:1011F000E1F780E060E043E52FE20E946F08089588
:10120000E0918E03F0918F0388EF91E0DF019C0164
:101210001D9221503040E1F780E060E043E52FE28D
:101220000E946F080E945509089528988EBD0DB43C
:1012300007FEFDCF289A089528985F9880EA9FE0DE
:101240000197F1F75F9A289A0895209A239A209A95
:10125000259A209A219A579A289A80E58CBD1DBC20
:101260000E94430986E991E062E971E00E94B208B8
:101270000E9400090895299A0E9415090895299845
:101280000E94150908950E941C0981E20E943F09ED
:1012900082E10E943F098CEB0E943F0980E20E949C
:1012A0003F098CE00E943F090895EF92FF920F934F
:1012B0001F93CF93DF9300E020E030E0C0E0D0E068
:1012C000E0919003F091910388E0E82EF12CE20E7A
:1012D000F31E818190E08E159F0554F5838190E087
:1012E0008217930764F1802F80640E943F09E09188
:1012F0009003F0919103808180680E943F09E09102
:101300009003F091910310810CC0E0918E03F09155
:101310008F03EC0FFD1FE10FF11D80810E943B093F
:101320001F5FE0919003F09191038281811768F72C
:101330000F5FCC5ADF4F063011F09701C1CF0E94EA
:101340009108DF91CF911F910F91FF90EF90089539
:1013500080680E943F090895863010F085E401C03E
:1013600080640E943F09089580E20E943F09089529
:101370000E94000984E20E943F0908951F93182FDC
:1013800081E20E943F09812F80680E943F0980E22C
:101390000E943F098CE00E943F091F910895282F69
:1013A00050E070E0681B7109469FC001479F900D97
:1013B000569F900D11246FEF70E00E945918822FF4
:1013C000860F08952F923F925F926F927F928F9235
:1013D0009F92AF92BF92CF92DF92EF92FF920F93C4
:1013E0001F93DF93CF930F92CDB7DEB7882EB62E23
:1013F000942EC22E502E01E00E940311DD24D394BE
:101400000C2D10E03801089461087108292C332450
:1014100008942108310812C08F2D8F5F6A2D0E9419
:10142000C00D482F8F2D6A2D0E94410EE394F39436
:101430008E2D90E0821593057CF3D3948D2D90E052
:101440008615970534F4F82CEE24E394AD2CAB0C00
:10145000EECF03501040852D90E09C01029FC0010B
:10146000039F900D129F900D11246FEF70E00E946A
:101470005918262F0F5F1F4F862F90E08017910776
:1014800014F02C2D23506C2D6B0D982D9250990D2E
:10149000162F121B62501250892F492F212F01E065
:1014A00099830E94C7111150B3949981892F612F9C
:1014B000492F2B2D00E00E94C7110E9455090F9063
:1014C000CF91DF911F910F91FF90EF90DF90CF9020
:1014D000BF90AF909F908F907F906F905F903F9064
:1014E0002F9008957F928F929F92AF92BF92CF924A
:1014F000DF92EF92FF920F931F93782E862E942EF9
:10150000A22EB02EFE2CEE2011F4FF24F39410E056
:1015100008C0872D682D492D2A2D0B2D0E94E20928
:101520001F5F1F15B0F3C114D10409F441C0B60107
:1015300080E090E00E9434175B016C0120E030E015
:101540004AE755E40E94C2177B018C0120E030E09D
:1015500040E85FE30E94041788231CF461E070E018
:1015600024C0C801B70120E03FEF4FE757E40E94D5
:10157000BE171816B4F4C601B50120E030E040E211
:1015800051E40E94C2170E94081780E991E005C04B
:10159000FC013197F1F76150704061157105C1F799
:1015A00007C0C801B7010E940817CB010197F1F7E6
:1015B0001F910F91FF90EF90DF90CF90BF90AF9071
:1015C0009F908F907F900895DF92EF92FF920F93FC
:1015D0001F93E82EF62ED42E122F402F622F62502A
:1015E000409580E00E94CF09F80E181B12508E2DF6
:1015F0006F2D4D2D212F01E00E946C111F910F9135
:10160000FF90EF90DF900895CF92DF92EF92FF92DC
:101610000F931F93C82ED62EE42E122FF02E01E02A
:101620000E940311612F6250F09480E04F2D0E94C0
:10163000CF09682F6F5F6D0D9EEFE90E181B1250DA
:101640008C2D8F5F4E2D212F0E946C111F910F91B9
:10165000FF90EF90DF90CF900895EF92FF920F935D
:101660001F93F82EE62E122F233060F080E0642FB7
:10167000402F0E94CF09482F8F2D6E2D212F01E082
:101680000E946C111F910F91FF90EF900895CF92DF
:10169000DF92EF92FF920F931F93C82EE62E142F26
:1016A000F22ED02E82E08217A0F48C2D01E00E9451
:1016B0000311125080E0612F4D2D0E94CF09482F59
:1016C000E3948EEFF80E8C2D8F5F6E2D2F2D0E94E0
:1016D0006C111F910F91FF90EF90DF90CF900895C4
:1016E0000F9390939303809392036093940340939A
:1016F0009503209396030093970381E080939803CA
:101700000F910895EF920F93909393038093920318
:10171000609394034093950320939603009397035B
:10172000E09298030F91EF9008952F923F924F927D
:101730005F926F927F928F929F92AF92BF92CF9261
:10174000DF92EF92FF920F931F93DF93CF93CDB76A
:10175000DEB763970FB6F894DEBF0FBECDBF482E3D
:10176000E62E342F50919603451720F08091970371
:10177000841708F43EE280919803882309F058C04A
:10178000042DFF24432E5524602E77248E2C99247B
:1017900049C04F2D50E0809196039201281B3109DA
:1017A000892F90E0BC01269FC001279F900D369F96
:1017B000900D1124840F951FE0919203F0919303F3
:1017C000E80FF91FE4911E2D222433245A01A60CA0
:1017D000B71CCE2EDD2474E5A716B1040CF070C141
:1017E000C101880D991DC0970CF06AC1C601022C79
:1017F00002C0959587950A94E2F780FF04C0802F78
:10180000612F41E003C0802F612F40E00E94410E14
:101810000894211C311C1F5F88E028163104D9F67A
:10182000F3940F5F90919403F91608F4B2CF49C175
:10183000813009F09CC020919503822F90E0877041
:101840009070269526952695892B09F02F5F2C837D
:10185000809194039C81989F802D11248F5F90E04C
:10186000232F30E0251B3109DC01A29FC001A39F7B
:10187000900DB29F900D1124E0919203F09193038B
:10188000E80FF91FB491BB833C81232F30E03A83EA
:1018900029833F010894611C711C542C88249924CD
:1018A000E98A442D50E05C874B874FC0F501849155
:1018B000E88686011B8A1A8A282E332429853A85D0
:1018C000243531050CF0FCC02A898A899B898E0D4C
:1018D0009F1DC0970CF0F4C08091950390E008170D
:1018E000190794F4C101022E02C0959587950A94B8
:1018F000E2F76885620F80FF03C0852D41E002C0DA
:10190000852D40E00E94410E4A895B894F5F5F4F01
:101910005B8B4A8B0F5F1F4F4830510579F643941C
:1019200068E070E0E60EF71EC60ED71E0894A11CF4
:10193000B11C7C81471608F4B9CF0894811C911C16
:1019400089819A81680E791E53949B81891608F0CB
:10195000B8C0898990E07C0153014424CC24DD2463
:10196000AB85BC85A80DB91DBA87A987E2CF8230A7
:1019700009F0A6C0B0909503B694B694B694B3940B
:1019800040919403232F30E0251B3109B49E802D14
:10199000112490E0FC012E9FC0012F9F900D3E9FCF
:1019A000900D11248090920390909303880E991EBD
:1019B000542E30E050E041505040642F631BE0E073
:1019C00020E090E007C0892F861BF401E80FF11D8D
:1019D000E0812F5F960F2B15B0F3EE2321F45A947C
:1019E00011F03F5FEACFFF246624CC24DD24242DB0
:1019F00030E0388B2F8758C08A2D90E020919403D7
:101A000030E04E815F81429FF001439FF00D529F75
:101A1000F00D1124E80FF91FE80DF91DE49186017E
:101A20001B8A1A8A6F857889680F791F7E876D8770
:101A30002E2E33248D859E85843591050CF040C073
:101A40002A898A899B898E0D9F1DC097CCF580912C
:101A5000950390E00817190794F4C101022E02C003
:101A6000959587950A94E2F76D81620F80FF03C018
:101A7000872D41E002C0872D40E00E94410EEA8997
:101A8000FB893196FB8BEA8B0F5F1F4F389791F6DE
:101A9000A3947394A51408F4AFCF639428E030E0C6
:101AA000E20EF31EC20ED31E6B1410F0952D09C06A
:101AB000462D50E05F834E83ED82742CAA24EACF3A
:101AC00090E0892F63960FB6F894DEBF0FBECDBFAE
:101AD000CF91DF911F910F91FF90EF90DF90CF900A
:101AE000BF90AF909F908F907F906F905F904F903E
:101AF0003F902F9008950F931F93CF93DF93182F4C
:101B0000062FEA01862F90E0409195032FE230E006
:101B1000241B31092817390764F0FE0121964491EE
:101B2000442339F0812F602F0E94950B8F5F180F8F
:101B3000F4CFDF91CF911F910F9108950F931F93D1
:101B4000CF93DF93182F062FEA01862F90E0409164
:101B500095032FE230E0241B31092817390744F49C
:101B60000AC0812F602F0E94950B8F5F180F21965E
:101B700048814423B1F7DF91CF911F910F910895D0
:101B8000482F8435F0F46033E0F4862F86958695EF
:101B9000869590E024E530E0829FF001839FF00D70
:101BA000929FF00D1124E40FF11DEA56FE4F808143
:101BB00090E0677002C0959587956A95E2F781700D
:101BC000089580E00895BC0180918E0390918F0369
:101BD00048EF51E00E94E1180E94A70808950F9372
:101BE0001F93082F162F8435E8F46033D8F4402F64
:101BF000212F0E946F08E12FE695E695E69584E592
:101C0000E89FF0011124E00FF11DEA56FE4F177016
:101C100081E090E002C0880F991F1A95E2F72081B9
:101C2000282720831F910F910895DF92EF92FF9252
:101C30000F931F93CF93DF93D62E082FE82EFF2408
:101C4000E40EF11CC62FD0E0C20FD11D0BC0802FB7
:101C5000612F0E94EF0D1F5F812F90E08C179D0771
:101C6000B4F30F5F802F90E08E159F0514F41D2DA7
:101C7000F3CFDF91CF911F910F91FF90EF90DF9005
:101C80000895A82F762F8435D0F56033C0F5562FF0
:101C900056955695569590E0262F30E04423A1F0B6
:101CA000E4E55E9FF0011124E80FF91FEA56FE4FAC
:101CB0002770307081E090E002C0880F991F2A954C
:101CC000E2F72081282B14C0E4E55E9FF001112487
:101CD000E80FF91FEA56FE4F2770307081E090E060
:101CE00002C0880F991F2A95E2F78095208128234A
:101CF00020838A2F672F4A2F272F0E946F0808956D
:101D00003F924F925F926F927F928F929F92AF928B
:101D1000BF92CF92DF92EF92FF920F931F93DF93C8
:101D2000CF9300D000D000D0CDB7DEB7B82EE62ECE
:101D3000F42E622E042F10E0641B480F2F2D2E0D61
:101D40008F190E946F088E2C99242401401A510A81
:101D50006801C80CD91C08C08B2D642D462D0E942B
:101D6000410E0894411C511CC414D504ACF7DD2469
:101D7000D394DF18000F111F402E4194CF2CAA24BA
:101D800000E010E083E0782E8E2D90E09C01215041
:101D900030403A832983FC013196FC83EB8354C0A5
:101DA000D7FC04C0CA94F2E04F0ED40CA3948C2D3F
:101DB000992787FD90959401281B390B3E832D832D
:101DC0007C01E80CF91C3A2C3B0C5B2C5A180FC018
:101DD000832D6D81462D0E94410E852D6D81462DEE
:101DE0000E94410E8D819E8101969E838D83ED819F
:101DF000FE81EE16FF0664F729813A81201B310B24
:101E00003E832D83EB80FC80E00EF11E3C2C3B0CCE
:101E10005B2C5C180FC0832D6D81462D0E94410EF6
:101E2000852D6D81462D0E94410E8D819E810196EA
:101E30009E838D83ED81FE81EE16FF0664F7D70C3D
:101E40000F5F1F4FF2E07F0EAC140CF4A9CF269663
:101E50000FB6F894DEBF0FBECDBFCF91DF911F91BB
:101E60000F91FF90EF90DF90CF90BF90AF909F9039
:101E70008F907F906F905F904F903F9008957F92EA
:101E80008F929F92AF92BF92CF92DF92EF92FF928A
:101E90000F931F93A82EB62EC22E99249394941AB2
:101EA000842F90E0880F991F782E7194D42EEA2CFD
:101EB000E41A062F041BF42EFA0C142F160F8E2D85
:101EC000602F4F2D212F0E946F088A2D612F4C2DDE
:101ED0000E94410E8A2D602F4C2D0E94410E8F2DA5
:101EE0006B2D4C2D0E94410E8E2D6B2D4C2D0E9482
:101EF000410EEE2423E0822E42C097FC04C0DA9407
:101F000082E0780E970CE394980CFE2CFA0C1D2DB1
:101F10001B0D8F2D612F4C2D0E94410E0A2D0E1985
:101F2000802F612F4C2D0E94410E1B2D1D198F2DCE
:101F3000612F4C2D0E94410E802F612F4C2D0E944D
:101F4000410EFD2CFA0C1E2D1B0D8F2D612F4C2DDB
:101F50000E94410E0A2D0D19802F612F4C2D0E94D9
:101F6000410E1B2D1E198F2D612F4C2D0E94410EED
:101F7000802F612F4C2D0E94410E82E0880EED14BF
:101F80000CF4BBCF1F910F91FF90EF90DF90CF909B
:101F9000BF90AF909F908F907F9008957F928F9287
:101FA0009F92AF92BF92CF92DF92EF92FF920F93E8
:101FB0001F93A82EB62EC22E99249394941A842F80
:101FC00090E0880F991F782E7194D42EEA2CE41A91
:101FD000062F041BF42EFA0C142F160F8E2D602FD3
:101FE0004F2D212F0E946F088A2D612F4C2D0E94AA
:101FF000410E8A2D602F4C2D0E94410E8F2D6B2D8E
:102000004C2D0E94410E8E2D6B2D4C2D0E94410EA9
:10201000EE2443E0842E42C097FC04C0DA9482E0B0
:10202000780E970CE394980CFE2CFA0C1D2D1B0DCA
:102030008F2D612F4C2D0E94410E0A2D0E19802FDD
:10204000612F4C2D0E94410E1B2D1D198F2D612FCC
:102050004C2D0E94410E802F612F4C2D0E94410E6D
:10206000FD2CFA0C1E2D1B0D8F2D612F4C2D0E9467
:10207000410E0A2D0D19802F612F4C2D0E94410E0B
:102080001B2D1E198F2D612F4C2D0E94410E802F6C
:10209000612F4C2D0E94410E82E0880EED140CF44D
:1020A000BBCF1F910F91FF90EF90DF90CF90BF902B
:1020B000AF909F908F907F9008952F923F924F9274
:1020C0005F926F927F928F929F92AF92BF92CF92C8
:1020D000DF92EF92FF920F931F93DF93CF9300D085
:1020E0000F92CDB7DEB7B82EA62E442E2983902EA0
:1020F0008E2D5C2C002311F499249394882309F4E9
:1021000081E000E010E0CB2CDD241601240C311C12
:1021100089808A0C682E772418C06A816A0D8E2DFA
:10212000452D0E94410E8E2D6F2D452D0E94410E92
:102130008A819B8101969B838A83FA94EA81FB8141
:10214000E615F70554F30F5F1F4FC8018C0D9D1D59
:102150008215930534F4F82C1B821A82EB2CE00EC6
:10216000ECCF00E010E0CA2CDD243601F9816F0EBF
:10217000711C342C3B0C892C992418C08A818B0D3E
:102180006F2D452D0E94410E8E2D6F2D452D0E94E5
:10219000410E8A819B8101969B838A83EA94EA811E
:1021A000FB81E815F90554F30F5F1F4FC8018C0D33
:1021B0009D1D8615970534F4E32C1B821A82FA2C98
:1021C000F00EECCF4B2D4150440D2A2D2150F981BA
:1021D0002F0F8B2D6A2D0E946F080F900F900F907C
:1021E000CF91DF911F910F91FF90EF90DF90CF90F3
:1021F000BF90AF909F908F907F906F905F904F9027
:102200003F902F9008956F927F928F929F92AF92FE
:10221000BF92CF92DF92EF92FF920F931F93CF93D3
:10222000DF93E82EF62EA42E722EB02EC0E0D0E062
:10223000C82EDD244601840E911CFA940F2D020F46
:10224000F3940DC01E2D1C0F812F6F2D4B2D0E945E
:10225000410E812F602F4B2D0E94410E2196CE0101
:102260008C0D9D1D881599056CF3C0E0D0E0CF2C36
:10227000DD244601870C911C0E2D0150602E6A0C46
:102280000DC01F2D1C0F8E2D612F4B2D0E94410E56
:10229000862D612F4B2D0E94410E2196CE018C0D73
:1022A0009D1D881599056CF30A0D2F2D2150270DC2
:1022B0008E2D6F2D402F0E946F08DF91CF911F91BF
:1022C0000F91FF90EF90DF90CF90BF90AF909F90D5
:1022D0008F907F906F9008952F923F924F925F92D0
:1022E0006F927F928F929F92AF92BF92CF92DF9226
:1022F000EF92FF920F931F93CF93DF93D82EC62EAA
:10230000442E322E202E00E010E0A82EBB243501F2
:10231000640E711CE62EFF244701820E911C14C02E
:10232000C0E0D0E05D2C500E07C06C2D6C0F852DE9
:10233000422D0E94410E2196CE018E0D9F1D8815C3
:1023400099059CF30F5F1F4FC8018A0D9B1D8615D1
:10235000970534F34D2D4150440D2C2D2150230D64
:102360008D2D6C2D0E946F08DF91CF911F910F91E1
:10237000FF90EF90DF90CF90BF90AF909F908F90A5
:102380007F906F905F904F903F902F9008959F9215
:10239000AF92BF92CF92DF92EF92FF920F931F9373
:1023A000F82EE62ED42E122F902EAA2430E0261BD3
:1023B000310937FF03C0309521953F4F8D2D90E0B7
:1023C0008F19910997FF03C0909581959F4F8217B0
:1023D000930744F4AA24A3948E2DEF2CF82E812F7A
:1023E0001D2DD82EDF1430F48D2DDF2CF82E812FEB
:1023F0001E2DE82E8F2D6E2D4D2D212F0E946F0842
:10240000CD2CCF18812F90E08E19910997FF03C032
:10241000909581959F4FB82EE11610F00FEF01C0F7
:1024200001E01C2D169510C0AA2019F08E2D6F2DDD
:1024300002C08F2D6E2D492D0E94410E1B1917FFD2
:1024400002C0E00E1C0DF394DF1470F71F910F9182
:10245000FF90EF90DF90CF90BF90AF909F90089546
:10246000CF92DF92EF92FF920F931F93E82ED62E1A
:10247000142FF22E0E9403111E0DFD0C8E2D8F5F66
:102480006F2D412F2F2D0E94C711D394812F6D2DB9
:10249000412F2F2D0E94C7111F910F91FF90EF9098
:1024A000DF90CF90089588E492E00E94E30D0E94AF
:1024B0005509809171018823E1F31092710108950B
:1024C0000F931F93CF93DF930E9400090E94550939
:1024D00040C080E060E042E322E30C2F0E94E2096A
:1024E0008CE360E042E32EE10E94E2098CE363E2C8
:1024F0004CE324E10E94E209809171018823F9F400
:102500006496CF3FD10529F320F310E0012F009509
:1025100080E060E042E322E30E94E2098CE360E0B5
:1025200042E32EE1012F0E94E2098CE363E24CE3D7
:1025300024E10E94E20980917101882339F0109210
:102540007101DF91CF911F910F9108951C5E14309E
:10255000E9F6C0E0D0E0D5CF0F9380EB97E065E0DF
:1025600047E020E20FE70E946F150E94ED0880E02F
:1025700060E046E051E00E94A5160E945509809156
:1025800071018823E1F3109271010F910895CF92A8
:10259000EF920F93CF93DF9380EB97E065E047E0F6
:1025A00020E20FE70E946F150E94ED0880E060E0D6
:1025B00043E151E00E94A5160E94550980ED97E085
:1025C00020E931E0F9013197F1F70197D9F7C0E936
:1025D000D1E00E94000980E060E044E622E301E0EF
:1025E0000E94031180E069E042E251E00E94A516DA
:1025F0000E94550988E893E1FE013197F1F70197B0
:10260000D9F780917101882309F085C00E940009E3
:1026100080E069E041E351E00E94A5160E9455095F
:1026200085E065E040E52EE103E056E0E52ECC24B0
:10263000C3940E945D100E94550988E893E1FE0151
:102640003197F1F70197D9F780917101882309F04B
:1026500062C080E060E044E124E102E032E0E32E89
:10266000CC24C3940E945D100E94550988E893E130
:10267000FE013197F1F70197D9F780917101882315
:1026800009F049C084E66AE044E124E105E095E010
:10269000E92ECC24C3940E945D100E94550988E85D
:1026A00093E1FE013197F1F70197D9F7809171011C
:1026B000882389F50E94000980E069E046E451E042
:1026C0000E94A51680E060E04DE22EE101E00E944C
:1026D00030120E94550988E893E1FE013197F1F725
:1026E0000197D9F7809171018823A9F48FE565E0FE
:1026F0004EE12EE101E00E9430120E94550988E867
:1027000093E1FE013197F1F70197D9F780917101BB
:10271000882309F45ECF10927101DF91CF910F9160
:10272000EF90CF900895AF92BF92CF92DF92EF9249
:10273000FF920F93DF93CF93CDB7DEB72F970FB6EE
:10274000F894DEBF0FBECDBF80EB97E065E047E0B9
:1027500020E20FE70E946F1500E27E010894E11C61
:10276000F11C7FE0A72EB12CAC0EBD1E60E9C62E79
:1027700061E0D62EF70100830F5F07FD00E231967E
:10278000EA15FB05C1F71F86C7010E94F516809167
:102790007101882391F0109271012F960FB6F89471
:1027A000DEBF0FBECDBFCF91DF910F91FF90EF90B5
:1027B000DF90CF90BF90AF90089580E197E2F6014F
:1027C0003197F1F70197D9F7D5CF0F931F93CF9397
:1027D000DF9380E999E06FE045E12EE209E30E9492
:1027E000700B1EE280919503181B00E0C0E9D1E058
:1027F00016C0809171018823D1F40E94ED0880E019
:10280000602F4CE551E00E949E0D0E94550980E228
:1028100093E0FE013197F1F70197D9F70F5F0117A8
:1028200040F3012F1DC080917101882339F010926F
:102830007101DF91CF911F910F9108950E94ED08D2
:1028400080E0602F40E651E00E949E0D0E945509F5
:1028500080E293E0FE013197F1F70197D9F701503B
:10286000002309F7DCCF8F929F92AF92BF92CF9255
:10287000DF92EF920F93DF93CF93CDB7DEB7289718
:102880000FB6F894DEBF0FBECDBF19821A821B822D
:102890001C821D821E821F821886CC24DD245E01CC
:1028A0000894A11CB11CF4E68F2EF1E09F2E0E942B
:1028B000ED0888E496E06CE043E120E309E3E2E020
:1028C000EE2E0E94820B00D000D000D0EDB7FEB7F4
:1028D0003196ADB7BEB71296BC92AE921197938265
:1028E0008282D582C4820E94EA188DB79EB706966E
:1028F0000FB6F8949EBF0FBE8DBF80E060E0A501CB
:102900000E949E0D0E9455090894C11CD11C809103
:102910007101882361F21092710128960FB6F89424
:10292000DEBF0FBECDBFCF91DF910F91EF90DF9053
:10293000CF90BF90AF909F908F9008958F929F926D
:10294000AF92BF92DF92EF92FF920F931F93DF93AC
:10295000CF93CDB7DEB728970FB6F894DEBF0FBE82
:10296000CDBF19821A821B821C821D821E821F8289
:102970001886DD245E010894A11CB11C14E6812E8A
:1029800011E0912E0E94ED0880E999E06FE045E1A9
:102990002EE209E30E94700BED2CFF2400D000D042
:1029A00000D0EDB7FEB73196ADB7BEB71296BC9268
:1029B000AE92119793828282F582E4820E94EA1895
:1029C0008DB79EB706960FB6F8949EBF0FBE8DBF0B
:1029D00080E060E0A5010E949E0D8701000F111F9D
:1029E000000F111F8AE066E24EE126E00E94470BCD
:1029F000EE0CFF1C86E460E048E02EE10E2D0E9404
:102A0000040B0E945509D39480917101882309F425
:102A1000B9CF1092710128960FB6F894DEBF0FBEA1
:102A2000CDBFCF91DF911F910F91FF90EF90DF907D
:102A3000BF90AF909F908F900895CF92DF92EF92CA
:102A4000FF920F931F93CF93DF9300E4C02E0FE10B
:102A5000D02EC0EADFE00E9400090E94D11864E590
:102A600070E00E945918E82E0E94D11860E370E0CF
:102A70000E945918F82E0E94D11862E370E00E945B
:102A80005918082F10E08E2D6F2D412F21E00E9444
:102A9000800E0E945509C6010197F1F71F5F0117CB
:102AA00090F710E08E2D6F2D412F20E00E94800EB8
:102AB0000E945509CE010197F1F71F5F011790F7AA
:102AC00080917101882339F210927101DF91CF91C9
:102AD0001F910F91FF90EF90DF90CF9008950F938B
:102AE0009093930380939203609394034093950390
:102AF0002093960300939703109298030F910895E3
:102B0000BF92CF92DF92EF92FF920F931F93CF93DA
:102B1000DF93F82EE62E5FE2561708F45DC0809131
:102B2000940390E08F0D911D843591050CF054C0F5
:102B300080919503883008F04FC0809198038823D6
:102B400009F04AC080919603481720F080919703BE
:102B5000841708F44EE200E0C42EDD242FC08091DB
:102B600096039601281B3109842F90E0AC01249F25
:102B7000C001259F900D349F900D1124800F911D51
:102B8000E0919203F0919303E80FF91FE49110E0B4
:102B9000CE2FD0E00EC0612F6E0DAE01012E02C00F
:102BA000559547950A94E2F741708B2D0E94410E8E
:102BB0001F5F80919503181770F30F5FB02EBF0C45
:102BC00040919403041758F24F0D209195032E0D58
:102BD0008F2D6E2D0E946F08DF91CF911F910F9165
:102BE000FF90EF90DF90CF90BF9008950F931F93C9
:102BF000CF93DF93082F262F142F60919503683011
:102C000008F06AC080919603481720F080919703DE
:102C1000841708F41EE2C22FD0E0E62FF0E03196D0
:102C200080E390E0BF010E945918C617D7070CF047
:102C300053C040919403842F90E0800F911D843500
:102C400091050CF049C0CE9FB001CF9F700DDE9F63
:102C5000700D1124400F2196CE9F9001CF9F300D13
:102C6000DE9F300D11242197802F0E946F0884E58C
:102C700090E0C89FD001C99FB00DD89FB00D11241E
:102C800050E0612F70E022C0809196039B01281BC9
:102C90003109892F90E0FC012E9FC0012F9F900DDC
:102CA0003E9F900D1124850F911DE0919203F091AC
:102CB0009303E80FF91F8491E0918E03F0918F0345
:102CC000EA0FFB1FE40FF11D80835F5F452F400F6C
:102CD000909194035917C0F2DF91CF911F910F91FA
:102CE00008950F931F93CF93DF93182F062FEA01B8
:102CF00080919503883020F5FE012196449144236C
:102D0000F9F0812F602F0E94F615809194038F5F58
:102D1000180F815090E0810F911D8435910514F0BA
:102D20000F5F10E0202F30E06091950370E06F5F3F
:102D30007F4F80E390E00E94591826173707E4F28E
:102D4000DF91CF911F910F9108950F931F93CF9310
:102D5000DF93182F062FEA0180919503883008F140
:102D600023C0812F602F0E94F615809194038F5FFE
:102D7000180F815090E0810F911D8435910514F05A
:102D80000F5F10E0202F30E06091950370E06F5FDF
:102D90007F4F80E390E00E9459182617370724F4EC
:102DA000219648814423E9F6DF91CF911F910F913D
:102DB0000895682F70E083E0660F771F8A95E1F72A
:102DC00080E043E528E00E94150E08950F931F93BD
:102DD0008C010E94BC0880E065E0A8010E94711689
:102DE0000E9455091F910F9108950F931F938C0115
:102DF0000E94BC0880E065E0A8010E94A5160E9420
:102E000055091F910F9108956CD008F481E0089541
:102E100094D088F09F5790F0B92F9927B751A0F020
:102E2000D1F0660F771F881F991F1AF0BA95C9F75E
:102E300012C0B13081F09BD0B1E0089598C0672FE7
:102E4000782F8827B85F39F0B93FCCF3869577950E
:102E50006795B395D9F73EF49095809570956195F7
:102E60007F4F8F4F9F4F0895E89409C097FB3EF422
:102E700090958095709561957F4F8F4F9F4F9923C7
:102E8000A9F0F92F96E9BB279395F6958795779545
:102E90006795B795F111F8CFFAF4BB0F11F460FF05
:102EA0001BC06F5F7F4F8F4F9F4F16C0882311F05D
:102EB00096E911C0772321F09EE8872F762F05C071
:102EC000662371F096E8862F70E060E02AF09A950C
:102ED000660F771F881FDAF7880F9695879597F901
:102EE0000895990F0008550FAA0BE0E8FEEF16169B
:102EF0001706E807F907C0F012161306E407F507EE
:102F000098F0621B730B840B950B39F40A2661F061
:102F1000232B242B252B21F408950A2609F4A14004
:102F2000A6958FEF811D811D089557FD9058440F80
:102F3000551F59F05F3F71F04795880F97FB991F18
:102F400061F09F3F79F087950895121613061406D5
:102F5000551FF2CF4695F1DF08C016161706180662
:102F6000991FF1CF86957105610508940895E8943D
:102F7000BB2766277727CB0197F90895B2DF08F4BE
:102F80008FEF08950BD078C069D028F06ED018F07C
:102F9000952309F05AC05FC01124EACFC6DFA0F321
:102FA000959FD1F3950F50E0551F629FF001729FDE
:102FB000BB27F00DB11D639FAA27F00DB11DAA1FFD
:102FC000649F6627B00DA11D661F829F2227B00D4A
:102FD000A11D621F739FB00DA11D621F839FA00DD5
:102FE000611D221F749F3327A00D611D231F849F25
:102FF000600D211D822F762F6A2F11249F5750407C
:103000008AF0E1F088234AF0EE0FFF1FBB1F661F16
:10301000771F881F91505040A9F79E3F510570F0CF
:1030200014C0A6CF5F3FECF3983EDCF3869577950E
:103030006795B795F795E7959F5FC1F7FE2B880FCA
:10304000911D9695879597F9089597F99F6780E860
:1030500070E060E008959FEF80EC089500240A94EA
:103060001616170618060906089500240A94121663
:103070001306140605060895092E0394000C11F496
:10308000882352F0BB0F40F4BF2B11F460FF04C043
:103090006F5F7F4F8F4F9F4F0895991B79E004C05A
:1030A000991F961708F0961B881F7A95C9F7809587
:1030B000089597FB092E07260AD077FD04D00CD07F
:1030C00006D000201AF4709561957F4F0895F6F7A9
:1030D000909581959F4F0895AA1BBB1B51E107C096
:1030E000AA1FBB1FA617B70710F0A61BB70B881F98
:1030F000991F5A95A9F780959095BC01CD01089527
:10310000A0E0B0E0E6E8F8E10C94CD1BEC01A8806B
:10311000B980CA80DB80A114B104C104D10441F498
:1031200084E2A82E89EDB82E8BE5C82E87E0D82E34
:10313000C601B5012DE133EF41E050E00E94AA1B2A
:1031400027EA31E440E050E00E948B1B7B018C01B8
:10315000C601B5012DE133EF41E050E00E94AA1B0A
:10316000CA01B9012CEE34EF4FEF5FEF0E948B1BC9
:103170006E0D7F1D801F911F97FF04C0615070402E
:1031800080409048688379838A839B839B013F7743
:10319000C901CDB7DEB7EAE00C94E91B0E948018A4
:1031A000089587E691E00E9480180895A0E0B0E0BD
:1031B0008093670190936801A0936901B0936A01BD
:1031C0000895FB01DC0102C005900D924150504072
:1031D000D8F70895AEE0B0E0E0EFF8E10C94D31B2F
:1031E0000D891E8986E08C831A8309838FEF9FE700
:1031F0009E838D839E01275E3F4FCE0101966F898E
:10320000788DA9010E940E192F813885020F131F96
:10321000F80110822E96E4E00C94EF1BABE0B0E0D6
:10322000E4E1F9E10C94C51B3C012B015A01FC01BE
:1032300017821682838181FD03C06FEF7FEFC6C1C5
:103240009AE0892E1E010894211C311CF301238170
:10325000F20123FD859123FF81912F01882309F439
:10326000B2C1853239F423FD859123FF81912F016D
:10327000853229F490E0B3010E94011BE7CF982F1B
:10328000FF24EE249924FFE1FF15D0F09B3269F072
:103290009C3228F4903259F0933291F40EC09D3252
:1032A00049F0903369F441E024C052E0F52A84E00B
:1032B000F82A28C098E0F92A25C0E0E1FE2A22C0B9
:1032C000F7FC29C0892F80538A3070F4F6FE05C0C0
:1032D000989C902C1124980E15C0E89CE02C112489
:1032E000E80EF0E2FF2A0EC09E3229F4F6FC6BC114
:1032F00040E4F42A07C09C3619F450E8F52A02C0CD
:10330000983649F4F20123FD959123FF91912F0105
:10331000992309F0B8CF892F8554833018F0805253
:10332000833038F444E050E0A40EB51E5FE35983C7
:103330000FC0933631F0933779F0933509F056C0CA
:1033400020C0F5018081898342E050E0A40EB51EC3
:10335000610101E010E012C0F501C080D180F6FCEF
:1033600003C06FEF7FEF02C0692D70E042E050E0D4
:10337000A40EB51EC6010E94F61A8C015FE7F52265
:1033800014C0F501C080D180F6FC03C06FEF7FEF61
:1033900002C0692D70E042E050E0A40EB51EC601E7
:1033A0000E94EB1A8C0150E8F52AF3FE07C01AC000
:1033B00080E290E0B3010E94011BEA948E2D90E020
:1033C00008171907A8F30EC0F601F7FC8591F7FE60
:1033D00081916F0190E0B3010E94011BE110EA941A
:1033E000015010400115110579F7EAC0943611F02B
:1033F000993669F5F7FE08C0F501208131814281D7
:10340000538184E090E00AC0F501808191819C01A4
:10341000442737FD4095542F82E090E0A80EB91E56
:103420009FE6F92257FF09C05095409530952195A8
:103430003F4F4F4F5F4FE0E8FE2ACA01B901A1019B
:103440002AE030E00E942D1BD82ED21840C09537BC
:1034500029F41F2D1F7E2AE030E01DC01F2D197F8B
:103460009F3661F0903720F4983509F0ACC00FC05A
:10347000903739F0983709F0A6C004C028E030E052
:103480000AC0106114FD146020E130E004C014FD96
:10349000166020E132E017FF08C0F50160817181FC
:1034A0008281938144E050E008C0F50180819181E0
:1034B000BC0180E090E042E050E0A40EB51EA10106
:1034C0000E942D1BD82ED2188FE7F82EF122F6FE7F
:1034D0000BC05EEFF522D91438F4F4FE07C0F2FCFD
:1034E00005C08FEEF82202C01D2D01C0192DF4FE7B
:1034F0000DC0FE01ED0DF11D8081803319F499EEB0
:10350000F92208C01F5FF2FE05C003C08F2D867828
:1035100009F01F5F0F2DF3FC14C0F0FE0FC01E1545
:1035200010F09D2C0BC09D2C9E0C911A1E2D06C0D8
:1035300080E290E0B3010E94011B1F5F1E15C0F3E3
:1035400004C01E1510F4E11A01C0EE2404FF0FC0E0
:1035500080E390E0B3010E94011B02FF1DC001FD4A
:1035600003C088E790E00EC088E590E00BC0802F94
:10357000867891F001FF02C08BE201C080E2F7FC87
:103580008DE290E0B3010E94011B06C080E390E051
:10359000B3010E94011B9A94D914C0F3DA94F1018B
:1035A000ED0DF11D808190E0B3010E94011BDD2033
:1035B000A9F706C080E290E0B3010E94011BEA94E3
:1035C000EE20C1F743CEF30166817781CB012B96C4
:1035D000E2E10C94E11BFC01059061507040011088
:1035E000D8F7809590958E0F9F1F0895FC0161502C
:1035F000704001900110D8F7809590958E0F9F1F15
:1036000008950F931F93CF93DF938C01EB018B8170
:1036100081FF1BC082FF0DC02E813F818C819D8167
:103620002817390764F4E881F9810193F983E88365
:1036300006C0E885F985802F0995892B31F48E81A4
:103640009F8101969F838E8302C00FEF1FEFC801F9
:10365000DF91CF911F910F910895FA01AA27283089
:1036600051F1203181F1E8946F936E7F6E5F7F4F4F
:103670008F4F9F4FAF4FB1E03ED0B4E03CD0670FCB
:10368000781F891F9A1FA11D680F791F8A1F911D1E
:10369000A11D6A0F711D811D911DA11D20D009F46E
:1036A00068943F912AE0269F11243019305D3193B0
:1036B000DEF6CF010895462F4770405D4193B3E099
:1036C0000FD0C9F7F6CF462F4F70405D4A3318F040
:1036D000495D31FD4052419302D0A9F7EACFB4E0F1
:1036E000A6959795879577956795BA95C9F70097A9
:1036F0006105710508959B01AC010A2E069457954A
:10370000479537952795BA95C9F7620F731F841FA0
:10371000951FA01D0895629FD001739FF001829FA5
:10372000E00DF11D649FE00DF11D929FF00D839F50
:10373000F00D749FF00D659FF00D9927729FB00DED
:10374000E11DF91F639FB00DE11DF91FBD01CF0100
:103750001124089597FB092E05260ED057FD04D09D
:103760004BD00AD0001C38F45095409530952195E7
:103770003F4F4F4F5F4F0895F6F7909580957095A6
:1037800061957F4F8F4F9F4F08952F923F924F9299
:103790005F926F927F928F929F92AF92BF92CF92E1
:1037A000DF92EF92FF920F931F93CF93DF93CDB7EA
:1037B000DEB7CA1BDB0B0FB6F894DEBF0FBECDBF62
:1037C00009942A88398848885F846E847D848C8433
:1037D0009B84AA84B984C884DF80EE80FD800C813C
:1037E0001B81AA81B981CE0FD11D0FB6F894DEBF1F
:1037F0000FBECDBFED010895A1E21A2EAA1BBB1B7F
:10380000FD010DC0AA1FBB1FEE1FFF1FA217B307AC
:10381000E407F50720F0A21BB30BE40BF50B661FC2
:10382000771F881F991F1A9469F760957095809586
:1038300090959B01AC01BD01CF010895F894FFCF95
:10384000256400532F2D48656C6C6F20576F726C88
:1038500064210052454354414E474C452044454D58
:103860004F00676C63645F647261775F7265637455
:1038700000676C63645F647261775F726563745F35
:10388000746869636B00676C63645F647261775F1F
:10389000726563745F736861646F770031323300FF
:0C38A000343536002564000100000000F3
:00000001FF
